:100000000C9463000C94CB020C94F2020C948B00C1
:100010000C948B000C948B000C948B000C948B0034
:100020000C948B000C948B000C948B000C948B0024
:100030000C948B000C948B000C948B000C948B0014
:100040000C9419030C948B000C940D060C943F0631
:100050000C948B000C948B000C948B000C948B00F4
:100060000C948B000C948B0000000008000201002F
:100070000003040700000000000000000102040863
:100080001020408001020408102001020408102002
:10009000040404040404040402020202020203032E
:1000A00003030303000000002300260029000000D2
:1000B0000000250028002B0000000000240027007D
:1000C0002A0017026F0611241FBECFEFD8E0DEBF53
:1000D000CDBF12E0A0E0B1E0E0E2F0E102C00590A7
:1000E0000D92A033B107D9F722E0A0E3B2E001C03E
:1000F0001D92A73EB207E1F710E0C6ECD0E004C0C5
:100100002297FE010E940A08C23CD107C9F70E944B
:10011000B3060C940E080C9400000F931F9368E034
:1001200071E08AE492E00E940D070E946303CB0114
:10013000AA2797FDA095BA2F409100015091010187
:1001400060910201709103018C019D01041B150B4C
:10015000260B370B03331105210531051CF021E077
:10016000209336028093000190930101A093020135
:10017000B09303011F910F91089526E040E052ECE7
:1001800061E070E08AE492E00E94AB0569E171E011
:100190008AE492E00E940D070E94630360930001CD
:1001A0007093010180930201909303011092360233
:1001B00062E082E00E94300462E083E00E9430044A
:1001C00062E086E00E94300462E087E00E94300432
:1001D00061E084E00E94300461E08DE00E94300420
:1001E00080913002909131021816190674F469E278
:1001F00071E08AE492E00E940D0761E08DE00E94C8
:100200006904109231021092300263E070E087E3DB
:1002100092E00E94390262E070E087E392E00E947F
:10022000520260E084E00E94690442E050E06DE820
:1002300070E080E00E94AB0284E690E0909333028D
:10024000809332020E946303609300017093010166
:1002500080930201909303016AE371E08AE492E0E3
:100260000E94000760913202709133024AE050E030
:100270008AE492E00E94C00765E471E08AE492E0BB
:100280000E9400074AE050E068E572E08AE492E0EC
:100290000E94C00761E084E00E94690468EE73E098
:1002A00080E090E00E94920360E084E00E94690494
:1002B00061E571E08AE492E00C940D078F929F92C1
:1002C000AF92BF92CF92DF92EF92FF920E946303B0
:1002D0006B017C014B016EE571E08AE492E00E94C3
:1002E0000D0760E771E08AE492E00E9400074AE0AF
:1002F00050E0B6018AE492E00E94C00761E084E029
:100300000E946904AA2497FCA094BA2C87E392E087
:100310000E9456020E946303681979098A099B09A1
:10032000693873418105910530F16DE771E08AE428
:1003300092E00E9400070E946303AB01BC014819D0
:1003400059096A097B092AE030E08AE492E00E94B8
:10035000D80760E971E08AE492E00E940D0780917D
:1003600030029091310201969093310280933002D5
:100370000E94BD0006C087E392E00E94A20288238B
:1003800029F260E084E00E9469040E9463036C1912
:100390007D0970933502609334026EE971E08AE45E
:1003A00092E00E94000760913402709135024AE0A9
:1003B00050E08AE492E00E94B80760E971E08AE4C4
:1003C00092E0FF90EF90DF90CF90BF90AF909F9022
:1003D0008F900C940D0780913602882339F160EBE1
:1003E00071E08AE492E00E940D0785E00E949F047C
:1003F000892B49F469EC71E08AE492E00E940D07D0
:100400000E945E0111C063ED71E08AE492E00E94F7
:100410000D07809130029091310201969093310244
:10042000809330020E94BD0010923602089587E347
:1004300092E00C942902FC0181850E949F0421E036
:10044000892B09F420E0822F0895862F642F0C94C5
:100450003004FC018AE092E091838083128213824F
:10046000148215828AE090E0978386831086118635
:100470000895CF93DF93EC0169871886E881F981AD
:100480000190F081E02D0995882319F0888583601B
:1004900088870E9463036A837B838C839D83DF91BB
:1004A000CF910895FC01778366830895FF920F939F
:1004B0001F93CF93DF93EC0188858B7F8887E8813A
:1004C000F9810190F081E02DCE010995F82E888503
:1004D00086958170F81651F00E9463036A837B83CE
:1004E0008C839D83888592E0892721C00E946303C5
:1004F0000A811B812C813D81601B710B820B930B48
:100500000E811F8120E030E060177107820793079A
:1005100078F098859170F91659F00E9463036A8308
:100520007B838C839D83888591E08927846088877D
:10053000888582FB882780F9DF91CF911F910F91E9
:10054000FF900895FC019085957081E0953009F049
:1005500080E0089508958230E8F4E82FF0E0EE0F8F
:10056000FF1FEC5FFE4F71836083813041F080910B
:1005700069008C7F842B80936900E89A08958091AC
:100580006900440F551F440F551F837F842B8093B0
:100590006900E99A08951F920F920FB60F921124E5
:1005A0002F933F934F935F936F937F938F939F937B
:1005B000AF93BF93EF93FF93E0910401F091050196
:1005C0000995FF91EF91BF91AF919F918F917F918D
:1005D0006F915F914F913F912F910F900FBE0F90B0
:1005E0001F9018951F920F920FB60F9211242F9300
:1005F0003F934F935F936F937F938F939F93AF93AB
:10060000BF93EF93FF93E0910601F09107010995E5
:10061000FF91EF91BF91AF919F918F917F916F91DA
:100620005F914F913F912F910F900FBE0F901F90B0
:1006300018951F920F920FB60F9211242F933F938C
:100640008F939F93AF93BF93809142029091430207
:10065000A0914402B09145023091410223E0230F62
:100660002D3720F40196A11DB11D05C026E8230FEA
:100670000296A11DB11D20934102809342029093E6
:100680004302A0934402B0934502809146029091A8
:100690004702A0914802B09149020196A11DB11DE7
:1006A0008093460290934702A0934802B093490278
:1006B000BF91AF919F918F913F912F910F900FBE5E
:1006C0000F901F9018952FB7F89460914202709187
:1006D000430280914402909145022FBF08953FB795
:1006E000F8948091460290914702A0914802B091FF
:1006F000490226B5A89B05C02F3F19F00196A11D00
:10070000B11D3FBF6627782F892F9A2F620F711D69
:10071000811D911D42E0660F771F881F991F4A9522
:10072000D1F708958F929F92AF92BF92CF92DF92AE
:10073000EF92FF926B017C010E946F034B015C0101
:10074000C114D104E104F104F1F00E94E5070E9414
:100750006F03681979098A099B09683E734081050E
:10076000910570F321E0C21AD108E108F10888EE82
:10077000880E83E0981EA11CB11CC114D104E104B1
:10078000F10429F7DDCFFF90EF90DF90CF90BF907D
:10079000AF909F908F900895789484B5826084BDC7
:1007A00084B5816084BD85B5826085BD85B5816075
:1007B00085BDEEE6F0E0808181608083E1E8F0E0D5
:1007C0001082808182608083808181608083E0E804
:1007D000F0E0808181608083E1EBF0E080818460E3
:1007E0008083E0EBF0E0808181608083EAE7F0E0E5
:1007F0008081846080838081826080838081816049
:1008000080838081806880831092C1000895833046
:1008100081F028F4813099F08230A1F0089587307A
:10082000A9F08830B9F08430D1F4809180008F7DB8
:1008300003C0809180008F7780938000089584B5F5
:100840008F7702C084B58F7D84BD08958091B000FC
:100850008F7703C08091B0008F7D8093B0000895A2
:10086000CF93DF9390E0FC01E458FF4F2491FC010B
:10087000E057FF4F8491882349F190E0880F991F3A
:10088000FC01E854FF4FA591B49182559F4FFC01A4
:10089000C591D4919FB7611108C0F8948C912095AF
:1008A00082238C93888182230AC0623051F4F894A9
:1008B0008C91322F309583238C938881822B88836F
:1008C00004C0F8948C91822B8C939FBFDF91CF91C1
:1008D00008950F931F93CF93DF931F92CDB7DEB789
:1008E000282F30E0F901E859FF4F8491F901E458CD
:1008F000FF4F1491F901E057FF4F04910023C9F015
:10090000882321F069830E9407046981E02FF0E0C9
:10091000EE0FFF1FE255FF4FA591B4919FB7F894DA
:100920008C91611103C01095812301C0812B8C93A0
:100930009FBF0F90DF91CF911F910F910895CF939B
:10094000DF93282F30E0F901E859FF4F8491F90136
:10095000E458FF4FD491F901E057FF4FC491CC23E5
:1009600091F081110E940704EC2FF0E0EE0FFF1FC1
:10097000EC55FF4FA591B4912C912D2381E090E08F
:1009800021F480E002C080E090E0DF91CF910895F3
:10099000FC01818D228D90E0805C9F4F821B91092C
:1009A0008F7399270895FC01918D828D981731F0EE
:1009B000828DE80FF11D858D90E008958FEF9FEFF8
:1009C0000895FC01918D828D981761F0828DDF0171
:1009D000A80FB11D5D968C91928D9F5F9F73928F32
:1009E00090E008958FEF9FEF089585E696E0892BBC
:1009F00049F080E090E0892B29F00E946506811182
:100A00000C9400000895FC01848DDF01A80FB11D36
:100A1000A35ABF4F2C91848D90E001968F73992734
:100A2000848FA689B7892C93A089B1898C91806421
:100A30008C93938D848D981306C00288F389E02DE2
:100A400080818F7D80830895CF93DF93EC01888D23
:100A50008823C9F0EA89FB89808185FD05C0A889C2
:100A6000B9898C9186FD0FC00FB607FCF5CF808148
:100A700085FFF2CFA889B9898C9185FFEDCFCE0192
:100A80000E940305E7CFDF91CF910895CF92DF92C7
:100A9000FF920F931F93CF93DF931F92CDB7DEB7D3
:100AA0006C0181E0D60158968C9358975B969C9187
:100AB0005B975C968C915C97981307C05096ED916C
:100AC000FC915197808185FD2EC0F601038D10E0C9
:100AD0000F5F1F4F0F731127F02EF601848DF81250
:100AE00011C00FB607FCF9CFD6015096ED91FC91DD
:100AF0005197808185FFF1CFC60169830E9403056C
:100B00006981EBCF838DE80FF11DE35AFF4F6083BE
:100B1000D6015B960C935B975296ED91FC9153979F
:100B2000808180620CC0D6015696ED91FC9157975A
:100B300060835096ED91FC91519780818064808311
:100B400081E090E00F90DF91CF911F910F91FF9086
:100B5000DF90CF900895BF92CF92DF92EF92FF92F5
:100B6000CF93DF93EC016A017B01B22EE889F9890A
:100B700082E08083411581EE580761057105A1F07F
:100B800060E079E08DE390E0A70196010E94E6071E
:100B900021503109410951095695479537952795B7
:100BA000211580E1380798F0E889F989108260E81A
:100BB00074E88EE190E0A70196010E94E6072150BB
:100BC0003109410951095695479537952795EC8587
:100BD000FD853083EE85FF852083188EEC89FD89A5
:100BE000B082EA89FB89808180618083EA89FB8900
:100BF000808188608083EA89FB8980818068808326
:100C0000EA89FB8980818F7D8083DF91CF91FF907E
:100C1000EF90DF90CF90BF9008951F920F920FB684
:100C20000F9211242F938F939F93EF93FF93E09153
:100C30005A02F0915B028081E0916002F0916102C2
:100C400082FD12C09081809163028F5F8F7320912B
:100C50006402821751F0E0916302F0E0E65BFD4F21
:100C6000958F8093630201C08081FF91EF919F91E6
:100C70008F912F910F900FBE0F901F9018951F927C
:100C80000F920FB60F9211242F933F934F935F93C0
:100C90006F937F938F939F93AF93BF93EF93FF9344
:100CA0008AE492E00E940305FF91EF91BF91AF911A
:100CB0009F918F917F916F915F914F913F912F9174
:100CC0000F900FBE0F901F9018958AE492E00E943B
:100CD000C80421E0892B09F420E0822F08951092A6
:100CE0004D0210924C0288EE93E0A0E0B0E08093B9
:100CF0004E0290934F02A0935002B093510282E1B2
:100D000092E090934B0280934A0285EC90E090939E
:100D100057028093560284EC90E09093590280939E
:100D2000580280EC90E090935B0280935A0281EC31
:100D300090E090935D0280935C0282EC90E090934F
:100D40005F0280935E0286EC90E090936102809354
:100D50006002109263021092640210926502109277
:100D60006602089508950E94CC030E94B2060E9474
:100D7000BD00C5EFD4E00E94EB012097E1F30E9493
:100D8000F504F9CFCF92DF92EF92FF920F931F936A
:100D9000CF93DF937C016A01EB0100E010E00C15BA
:100DA0001D0571F06991D701ED91FC910190F081E1
:100DB000E02DC7010995892B19F00F5F1F4FEFCF69
:100DC000C801DF91CF911F910F91FF90EF90DF90BD
:100DD000CF9008956115710581F0DB010D90002021
:100DE000E9F7AD0141505109461B570BDC01ED916C
:100DF000FC910280F381E02D099480E090E0089559
:100E00000C94EA06DC01ED91FC910190F081E02D5B
:100E100009946EE172E00C94EA060F931F93CF934E
:100E2000DF93EC010E94EA068C01CE010E940907C3
:100E3000800F911FDF91CF911F910F9108958F9295
:100E40009F92AF92BF92DF92EF92FF920F931F9308
:100E5000CF93DF93CDB7DEB7A1970FB6F894DEBF7F
:100E60000FBECDBF7C01F42FD52ECB0119A22230AD
:100E700008F42AE08E010F5D1F4F822E912CA12CC9
:100E8000B12C6F2F7D2DA50194010E94E607F22F52
:100E9000D32ECA01015011096A3014F4E0E301C0F5
:100EA000E7E3E60FD801EC93232B242B252B49F7FE
:100EB000B801C7010E94EA06A1960FB6F894DEBFFA
:100EC0000FBECDBFDF91CF911F910F91FF90EF909B
:100ED000DF90BF90AF909F908F900895CF92DF9258
:100EE000EF92FF920F931F93CF93DF93EC016A0170
:100EF0007B012115310579F4E881F9810190F081B8
:100F0000E02D642FDF91CF911F910F91FF90EF9013
:100F1000DF90CF9009942A303105E9F477FF1AC0A9
:100F20006DE20E9402078C0144275527BA014C1933
:100F30005D096E097F092AE0CE010E941F07800F1C
:100F4000911FDF91CF911F910F91FF90EF90DF9054
:100F5000CF9008952AE0B701A601CE01DF91CF918D
:100F60001F910F91FF90EF90DF90CF900C941F078F
:100F70009A01AB01662757FD6095762F0C946E079A
:100F80000F931F93CF93DF93EC019A01AB01662778
:100F900057FD6095762F0E946E078C01CE010E944E
:100FA0000907800F911FDF91CF911F910F91089535
:100FB0002115310541F4DC01ED91FC910190F081A6
:100FC000E02D642F09940C941F070895A1E21A2EB6
:100FD000AA1BBB1BFD010DC0AA1FBB1FEE1FFF1FDD
:100FE000A217B307E407F50720F0A21BB30BE40B2D
:100FF000F50B661F771F881F991F1A9469F7609574
:101000007095809590959B01AC01BD01CF0108952D
:10101000EE0FFF1F0590F491E02D0994F894FFCF97
:10102000FFFFFFFFAA02AA02496E74657272757013
:1010300074206361756768740053657474696E67C2
:101040002075702070696E7300416E206572726F3A
:1010500072206F6363757265640072706D44656CB5
:1010600061793A200052504D204C696D69743A20E4
:1010700000536574757020646F6E65200A005374A8
:10108000617274696E6720746F206379636C6500A8
:1010900073746172744379636C653A2000437963B9
:1010A0006C696E6720746F6F206C6F6E673A2000FA
:1010B000206D696C6C697365636F6E64730043794E
:1010C000636C6520656E64732C20746F6F6B2000F9
:1010D0005472696767657220686173206265656E26
:1010E00020707265737365640053656D69206D6F60
:1010F0006465004572726F7220696E206C6F6F704C
:1011000028292C2074726967676572207072657374
:1011100073656420776974686F7574206669726599
:10112000206D6F646500000000001B0225020000B6
:1011300000004605C206C804E104D30424050D0AD4
:10114000006E616E00696E66006F7666002E0000AC
:107E0000112484B714BE81FFF0D085E080938100F7
:107E100082E08093C00088E18093C10086E0809377
:107E2000C20080E18093C4008EE0C9D0259A86E02C
:107E300020E33CEF91E0309385002093840096BBD3
:107E4000B09BFECF1D9AA8958150A9F7CC24DD24C4
:107E500088248394B5E0AB2EA1E19A2EF3E0BF2EE7
:107E6000A2D0813461F49FD0082FAFD0023811F036
:107E7000013811F484E001C083E08DD089C08234E0
:107E800011F484E103C0853419F485E0A6D080C0E4
:107E9000853579F488D0E82EFF2485D0082F10E0AE
:107EA000102F00270E291F29000F111F8ED06801E7
:107EB0006FC0863521F484E090D080E0DECF843638
:107EC00009F040C070D06FD0082F6DD080E0C81688
:107ED00080E7D80618F4F601B7BEE895C0E0D1E017
:107EE00062D089930C17E1F7F0E0CF16F0E7DF06D8
:107EF00018F0F601B7BEE89568D007B600FCFDCFD4
:107F0000A601A0E0B1E02C9130E011968C91119780
:107F100090E0982F8827822B932B1296FA010C0160
:107F200087BEE89511244E5F5F4FF1E0A038BF0790
:107F300051F7F601A7BEE89507B600FCFDCF97BE46
:107F4000E89526C08437B1F42ED02DD0F82E2BD052
:107F50003CD0F601EF2C8F010F5F1F4F84911BD097
:107F6000EA94F801C1F70894C11CD11CFA94CF0C13
:107F7000D11C0EC0853739F428D08EE10CD085E9AC
:107F80000AD08FE07ACF813511F488E018D01DD067
:107F900080E101D065CF982F8091C00085FFFCCF94
:107FA0009093C60008958091C00087FFFCCF809118
:107FB000C00084FD01C0A8958091C6000895E0E648
:107FC000F0E098E1908380830895EDDF803219F02E
:107FD00088E0F5DFFFCF84E1DECF1F93182FE3DFCA
:107FE0001150E9F7F2DF1F91089580E0E8DFEE27F6
:047FF000FF270994CA
:027FFE00040479
:0400000300007E007B
:00000001FF